{
  "_format": "hh-sol-artifact-1",
  "contractName": "BribeV3Snapshot",
  "sourceName": "contracts/BribeV3Snapshot.sol",
  "abi": [
    {
      "inputs": [
        {
          "internalType": "uint256",
          "name": "_feePercentage",
          "type": "uint256"
        },
        {
          "internalType": "address",
          "name": "_feeAddress",
          "type": "address"
        },
        {
          "internalType": "address",
          "name": "_distributionAddress",
          "type": "address"
        }
      ],
      "stateMutability": "nonpayable",
      "type": "constructor"
    },
    {
      "anonymous": false,
      "inputs": [
        {
          "indexed": false,
          "internalType": "uint256",
          "name": "time",
          "type": "uint256"
        },
        {
          "indexed": true,
          "internalType": "address",
          "name": "briber",
          "type": "address"
        },
        {
          "indexed": false,
          "internalType": "string",
          "name": "proposal",
          "type": "string"
        },
        {
          "indexed": false,
          "internalType": "uint256",
          "name": "option",
          "type": "uint256"
        },
        {
          "indexed": false,
          "internalType": "address",
          "name": "reward_token",
          "type": "address"
        },
        {
          "indexed": false,
          "internalType": "uint256",
          "name": "amount",
          "type": "uint256"
        },
        {
          "indexed": false,
          "internalType": "uint256",
          "name": "startTime",
          "type": "uint256"
        },
        {
          "indexed": false,
          "internalType": "uint256",
          "name": "endTime",
          "type": "uint256"
        }
      ],
      "name": "Bribe",
      "type": "event"
    },
    {
      "anonymous": false,
      "inputs": [
        {
          "indexed": false,
          "internalType": "address",
          "name": "oldAddress",
          "type": "address"
        },
        {
          "indexed": false,
          "internalType": "address",
          "name": "newAddress",
          "type": "address"
        }
      ],
      "name": "DistributionAddressUpdated",
      "type": "event"
    },
    {
      "anonymous": false,
      "inputs": [
        {
          "indexed": false,
          "internalType": "address",
          "name": "oldAddress",
          "type": "address"
        },
        {
          "indexed": false,
          "internalType": "address",
          "name": "newAddress",
          "type": "address"
        }
      ],
      "name": "FeeAddressUpdated",
      "type": "event"
    },
    {
      "anonymous": false,
      "inputs": [
        {
          "indexed": false,
          "internalType": "uint256",
          "name": "oldFee",
          "type": "uint256"
        },
        {
          "indexed": false,
          "internalType": "uint256",
          "name": "newFee",
          "type": "uint256"
        }
      ],
      "name": "FeePercentageUpdated",
      "type": "event"
    },
    {
      "anonymous": false,
      "inputs": [
        {
          "indexed": true,
          "internalType": "address",
          "name": "previousOwner",
          "type": "address"
        },
        {
          "indexed": true,
          "internalType": "address",
          "name": "newOwner",
          "type": "address"
        }
      ],
      "name": "OwnershipTransferred",
      "type": "event"
    },
    {
      "inputs": [],
      "name": "MAX_FEE",
      "outputs": [
        {
          "internalType": "uint256",
          "name": "",
          "type": "uint256"
        }
      ],
      "stateMutability": "view",
      "type": "function"
    },
    {
      "inputs": [
        {
          "internalType": "string",
          "name": "proposal",
          "type": "string"
        },
        {
          "internalType": "uint256",
          "name": "option",
          "type": "uint256"
        },
        {
          "internalType": "address",
          "name": "reward_token",
          "type": "address"
        },
        {
          "internalType": "uint256",
          "name": "amount",
          "type": "uint256"
        },
        {
          "internalType": "uint256",
          "name": "startTime",
          "type": "uint256"
        },
        {
          "internalType": "uint256",
          "name": "endTime",
          "type": "uint256"
        }
      ],
      "name": "add_reward_amount",
      "outputs": [],
      "stateMutability": "nonpayable",
      "type": "function"
    },
    {
      "inputs": [],
      "name": "distributionAddress",
      "outputs": [
        {
          "internalType": "address",
          "name": "",
          "type": "address"
        }
      ],
      "stateMutability": "view",
      "type": "function"
    },
    {
      "inputs": [],
      "name": "feeAddress",
      "outputs": [
        {
          "internalType": "address",
          "name": "",
          "type": "address"
        }
      ],
      "stateMutability": "view",
      "type": "function"
    },
    {
      "inputs": [],
      "name": "feePercentage",
      "outputs": [
        {
          "internalType": "uint256",
          "name": "",
          "type": "uint256"
        }
      ],
      "stateMutability": "view",
      "type": "function"
    },
    {
      "inputs": [],
      "name": "owner",
      "outputs": [
        {
          "internalType": "address",
          "name": "",
          "type": "address"
        }
      ],
      "stateMutability": "view",
      "type": "function"
    },
    {
      "inputs": [],
      "name": "renounceOwnership",
      "outputs": [],
      "stateMutability": "nonpayable",
      "type": "function"
    },
    {
      "inputs": [
        {
          "internalType": "address",
          "name": "_distributionAddress",
          "type": "address"
        }
      ],
      "name": "set_distribution_address",
      "outputs": [],
      "stateMutability": "nonpayable",
      "type": "function"
    },
    {
      "inputs": [
        {
          "internalType": "address",
          "name": "_feeAddress",
          "type": "address"
        }
      ],
      "name": "set_fee_address",
      "outputs": [],
      "stateMutability": "nonpayable",
      "type": "function"
    },
    {
      "inputs": [
        {
          "internalType": "uint256",
          "name": "_feePercentage",
          "type": "uint256"
        }
      ],
      "name": "set_fee_percentage",
      "outputs": [],
      "stateMutability": "nonpayable",
      "type": "function"
    },
    {
      "inputs": [
        {
          "internalType": "address",
          "name": "newOwner",
          "type": "address"
        }
      ],
      "name": "transferOwnership",
      "outputs": [],
      "stateMutability": "nonpayable",
      "type": "function"
    }
  ],
  "bytecode": "0x60806040523480156200001157600080fd5b5060405162001fba38038062001fba8339818101604052810190620000379190620003d2565b620000576200004b6200026160201b60201c565b6200026960201b60201c565b6001808190555060008311620000a4576040517f08c379a00000000000000000000000000000000000000000000000000000000081526004016200009b906200048f565b60405180910390fd5b600f831115620000eb576040517f08c379a0000000000000000000000000000000000000000000000000000000008152600401620000e29062000501565b60405180910390fd5b600073ffffffffffffffffffffffffffffffffffffffff168273ffffffffffffffffffffffffffffffffffffffff16036200015d576040517f08c379a0000000000000000000000000000000000000000000000000000000008152600401620001549062000573565b60405180910390fd5b600073ffffffffffffffffffffffffffffffffffffffff168173ffffffffffffffffffffffffffffffffffffffff1603620001cf576040517f08c379a0000000000000000000000000000000000000000000000000000000008152600401620001c690620005e5565b60405180910390fd5b8260028190555081600360006101000a81548173ffffffffffffffffffffffffffffffffffffffff021916908373ffffffffffffffffffffffffffffffffffffffff16021790555080600460006101000a81548173ffffffffffffffffffffffffffffffffffffffff021916908373ffffffffffffffffffffffffffffffffffffffff16021790555050505062000607565b600033905090565b60008060009054906101000a900473ffffffffffffffffffffffffffffffffffffffff169050816000806101000a81548173ffffffffffffffffffffffffffffffffffffffff021916908373ffffffffffffffffffffffffffffffffffffffff1602179055508173ffffffffffffffffffffffffffffffffffffffff168173ffffffffffffffffffffffffffffffffffffffff167f8be0079c531659141344cd1fd0a4f28419497f9722a3daafe3b4186f6b6457e060405160405180910390a35050565b600080fd5b6000819050919050565b620003478162000332565b81146200035357600080fd5b50565b60008151905062000367816200033c565b92915050565b600073ffffffffffffffffffffffffffffffffffffffff82169050919050565b60006200039a826200036d565b9050919050565b620003ac816200038d565b8114620003b857600080fd5b50565b600081519050620003cc81620003a1565b92915050565b600080600060608486031215620003ee57620003ed6200032d565b5b6000620003fe8682870162000356565b93505060206200041186828701620003bb565b92505060406200042486828701620003bb565b9150509250925092565b600082825260208201905092915050565b7f4665652063616e6e6f7420626520300000000000000000000000000000000000600082015250565b600062000477600f836200042e565b915062000484826200043f565b602082019050919050565b60006020820190508181036000830152620004aa8162000468565b9050919050565b7f46656520746f6f20686967680000000000000000000000000000000000000000600082015250565b6000620004e9600c836200042e565b9150620004f682620004b1565b602082019050919050565b600060208201905081810360008301526200051c81620004da565b9050919050565b7f77726f6e67206665652061646472657373000000000000000000000000000000600082015250565b60006200055b6011836200042e565b9150620005688262000523565b602082019050919050565b600060208201905081810360008301526200058e816200054c565b9050919050565b7f77726f6e6720646973747269627574696f6e2061646472657373000000000000600082015250565b6000620005cd601a836200042e565b9150620005da8262000595565b602082019050919050565b600060208201905081810360008301526200060081620005be565b9050919050565b6119a380620006176000396000f3fe608060405234801561001057600080fd5b50600436106100a95760003560e01c8063715018a611610071578063715018a61461013e5780638da5cb5b14610148578063919cd38314610166578063a001ecdd14610182578063bc063e1a146101a0578063f2fde38b146101be576100a9565b80631703beb5146100ae5780632aed6a01146100ca57806337fb7e21146100e6578063412753581461010457806370919e4c14610122575b600080fd5b6100c860048036038101906100c39190611004565b6101da565b005b6100e460048036038101906100df91906110ad565b6103c6565b005b6100ee610550565b6040516100fb91906110e9565b60405180910390f35b61010c610576565b60405161011991906110e9565b60405180910390f35b61013c60048036038101906101379190611104565b61059c565b005b6101466106e4565b005b61015061076c565b60405161015d91906110e9565b60405180910390f35b610180600480360381019061017b91906110ad565b610795565b005b61018a61091f565b6040516101979190611140565b60405180910390f35b6101a8610925565b6040516101b59190611140565b60405180910390f35b6101d860048036038101906101d391906110ad565b61092a565b005b60026001540361021f576040517f08c379a0000000000000000000000000000000000000000000000000000000008152600401610216906111b8565b60405180910390fd5b6002600181905550600073ffffffffffffffffffffffffffffffffffffffff168473ffffffffffffffffffffffffffffffffffffffff160361026057600080fd5b600083116102a3576040517f08c379a000000000000000000000000000000000000000000000000000000000815260040161029a90611224565b60405180910390fd5b60006102ae84610a21565b905080846102bc9190611273565b935061030d33600360009054906101000a900473ffffffffffffffffffffffffffffffffffffffff16838873ffffffffffffffffffffffffffffffffffffffff16610a44909392919063ffffffff16565b61035c33600460009054906101000a900473ffffffffffffffffffffffffffffffffffffffff16868873ffffffffffffffffffffffffffffffffffffffff16610a44909392919063ffffffff16565b3373ffffffffffffffffffffffffffffffffffffffff167f99e4547e6764bcea2cb60cc80c3446655f6c5f3c905e5fac424c6e7b119f9ca4428989898989896040516103ae9796959493929190611315565b60405180910390a25060018081905550505050505050565b6103ce610acd565b73ffffffffffffffffffffffffffffffffffffffff166103ec61076c565b73ffffffffffffffffffffffffffffffffffffffff1614610442576040517f08c379a0000000000000000000000000000000000000000000000000000000008152600401610439906113d7565b60405180910390fd5b600073ffffffffffffffffffffffffffffffffffffffff168173ffffffffffffffffffffffffffffffffffffffff16036104b1576040517f08c379a00000000000000000000000000000000000000000000000000000000081526004016104a890611443565b60405180910390fd5b7f87bc4c971cc95b28b88dfc63a854455265ef6451444531932dff20a89c5066f2600460009054906101000a900473ffffffffffffffffffffffffffffffffffffffff1682604051610504929190611463565b60405180910390a180600460006101000a81548173ffffffffffffffffffffffffffffffffffffffff021916908373ffffffffffffffffffffffffffffffffffffffff16021790555050565b600460009054906101000a900473ffffffffffffffffffffffffffffffffffffffff1681565b600360009054906101000a900473ffffffffffffffffffffffffffffffffffffffff1681565b6105a4610acd565b73ffffffffffffffffffffffffffffffffffffffff166105c261076c565b73ffffffffffffffffffffffffffffffffffffffff1614610618576040517f08c379a000000000000000000000000000000000000000000000000000000000815260040161060f906113d7565b60405180910390fd5b6000811161065b576040517f08c379a0000000000000000000000000000000000000000000000000000000008152600401610652906114d8565b60405180910390fd5b600f81111561069f576040517f08c379a000000000000000000000000000000000000000000000000000000000815260040161069690611544565b60405180910390fd5b7fb27c12a91635e11c22bffa7bd8e0a8735da52b94aaefd7f249776c7590ba7894600254826040516106d2929190611564565b60405180910390a18060028190555050565b6106ec610acd565b73ffffffffffffffffffffffffffffffffffffffff1661070a61076c565b73ffffffffffffffffffffffffffffffffffffffff1614610760576040517f08c379a0000000000000000000000000000000000000000000000000000000008152600401610757906113d7565b60405180910390fd5b61076a6000610ad5565b565b60008060009054906101000a900473ffffffffffffffffffffffffffffffffffffffff16905090565b61079d610acd565b73ffffffffffffffffffffffffffffffffffffffff166107bb61076c565b73ffffffffffffffffffffffffffffffffffffffff1614610811576040517f08c379a0000000000000000000000000000000000000000000000000000000008152600401610808906113d7565b60405180910390fd5b600073ffffffffffffffffffffffffffffffffffffffff168173ffffffffffffffffffffffffffffffffffffffff1603610880576040517f08c379a000000000000000000000000000000000000000000000000000000000815260040161087790611443565b60405180910390fd5b7f11f35a22548bcd4c3788ab4a7e4fba427a2014f02e5d5e2da9af62212c03183f600360009054906101000a900473ffffffffffffffffffffffffffffffffffffffff16826040516108d3929190611463565b60405180910390a180600360006101000a81548173ffffffffffffffffffffffffffffffffffffffff021916908373ffffffffffffffffffffffffffffffffffffffff16021790555050565b60025481565b600f81565b610932610acd565b73ffffffffffffffffffffffffffffffffffffffff1661095061076c565b73ffffffffffffffffffffffffffffffffffffffff16146109a6576040517f08c379a000000000000000000000000000000000000000000000000000000000815260040161099d906113d7565b60405180910390fd5b600073ffffffffffffffffffffffffffffffffffffffff168173ffffffffffffffffffffffffffffffffffffffff1603610a15576040517f08c379a0000000000000000000000000000000000000000000000000000000008152600401610a0c906115ff565b60405180910390fd5b610a1e81610ad5565b50565b6000606460025483610a33919061161f565b610a3d9190611690565b9050919050565b610ac7846323b872dd60e01b858585604051602401610a65939291906116c1565b604051602081830303815290604052907bffffffffffffffffffffffffffffffffffffffffffffffffffffffff19166020820180517bffffffffffffffffffffffffffffffffffffffffffffffffffffffff8381831617835250505050610b99565b50505050565b600033905090565b60008060009054906101000a900473ffffffffffffffffffffffffffffffffffffffff169050816000806101000a81548173ffffffffffffffffffffffffffffffffffffffff021916908373ffffffffffffffffffffffffffffffffffffffff1602179055508173ffffffffffffffffffffffffffffffffffffffff168173ffffffffffffffffffffffffffffffffffffffff167f8be0079c531659141344cd1fd0a4f28419497f9722a3daafe3b4186f6b6457e060405160405180910390a35050565b6000610bfb826040518060400160405280602081526020017f5361666545524332303a206c6f772d6c6576656c2063616c6c206661696c65648152508573ffffffffffffffffffffffffffffffffffffffff16610c609092919063ffffffff16565b9050600081511115610c5b5780806020019051810190610c1b9190611730565b610c5a576040517f08c379a0000000000000000000000000000000000000000000000000000000008152600401610c51906117cf565b60405180910390fd5b5b505050565b6060610c6f8484600085610c78565b90509392505050565b606082471015610cbd576040517f08c379a0000000000000000000000000000000000000000000000000000000008152600401610cb490611861565b60405180910390fd5b610cc685610d8c565b610d05576040517f08c379a0000000000000000000000000000000000000000000000000000000008152600401610cfc906118cd565b60405180910390fd5b6000808673ffffffffffffffffffffffffffffffffffffffff168587604051610d2e9190611934565b60006040518083038185875af1925050503d8060008114610d6b576040519150601f19603f3d011682016040523d82523d6000602084013e610d70565b606091505b5091509150610d80828286610daf565b92505050949350505050565b6000808273ffffffffffffffffffffffffffffffffffffffff163b119050919050565b60608315610dbf57829050610e0f565b600083511115610dd25782518084602001fd5b816040517f08c379a0000000000000000000000000000000000000000000000000000000008152600401610e06919061194b565b60405180910390fd5b9392505050565b6000604051905090565b600080fd5b600080fd5b600080fd5b600080fd5b6000601f19601f8301169050919050565b7f4e487b7100000000000000000000000000000000000000000000000000000000600052604160045260246000fd5b610e7d82610e34565b810181811067ffffffffffffffff82111715610e9c57610e9b610e45565b5b80604052505050565b6000610eaf610e16565b9050610ebb8282610e74565b919050565b600067ffffffffffffffff821115610edb57610eda610e45565b5b610ee482610e34565b9050602081019050919050565b82818337600083830152505050565b6000610f13610f0e84610ec0565b610ea5565b905082815260208101848484011115610f2f57610f2e610e2f565b5b610f3a848285610ef1565b509392505050565b600082601f830112610f5757610f56610e2a565b5b8135610f67848260208601610f00565b91505092915050565b6000819050919050565b610f8381610f70565b8114610f8e57600080fd5b50565b600081359050610fa081610f7a565b92915050565b600073ffffffffffffffffffffffffffffffffffffffff82169050919050565b6000610fd182610fa6565b9050919050565b610fe181610fc6565b8114610fec57600080fd5b50565b600081359050610ffe81610fd8565b92915050565b60008060008060008060c0878903121561102157611020610e20565b5b600087013567ffffffffffffffff81111561103f5761103e610e25565b5b61104b89828a01610f42565b965050602061105c89828a01610f91565b955050604061106d89828a01610fef565b945050606061107e89828a01610f91565b935050608061108f89828a01610f91565b92505060a06110a089828a01610f91565b9150509295509295509295565b6000602082840312156110c3576110c2610e20565b5b60006110d184828501610fef565b91505092915050565b6110e381610fc6565b82525050565b60006020820190506110fe60008301846110da565b92915050565b60006020828403121561111a57611119610e20565b5b600061112884828501610f91565b91505092915050565b61113a81610f70565b82525050565b60006020820190506111556000830184611131565b92915050565b600082825260208201905092915050565b7f5265656e7472616e637947756172643a207265656e7472616e742063616c6c00600082015250565b60006111a2601f8361115b565b91506111ad8261116c565b602082019050919050565b600060208201905081810360008301526111d181611195565b9050919050565b7f6e6f2072657761726420746f2061646400000000000000000000000000000000600082015250565b600061120e60108361115b565b9150611219826111d8565b602082019050919050565b6000602082019050818103600083015261123d81611201565b9050919050565b7f4e487b7100000000000000000000000000000000000000000000000000000000600052601160045260246000fd5b600061127e82610f70565b915061128983610f70565b92508282039050818111156112a1576112a0611244565b5b92915050565b600081519050919050565b60005b838110156112d05780820151818401526020810190506112b5565b60008484015250505050565b60006112e7826112a7565b6112f1818561115b565b93506113018185602086016112b2565b61130a81610e34565b840191505092915050565b600060e08201905061132a600083018a611131565b818103602083015261133c81896112dc565b905061134b6040830188611131565b61135860608301876110da565b6113656080830186611131565b61137260a0830185611131565b61137f60c0830184611131565b98975050505050505050565b7f4f776e61626c653a2063616c6c6572206973206e6f7420746865206f776e6572600082015250565b60006113c160208361115b565b91506113cc8261138b565b602082019050919050565b600060208201905081810360008301526113f0816113b4565b9050919050565b7f696e636f72726563742061646472657373000000000000000000000000000000600082015250565b600061142d60118361115b565b9150611438826113f7565b602082019050919050565b6000602082019050818103600083015261145c81611420565b9050919050565b600060408201905061147860008301856110da565b61148560208301846110da565b9392505050565b7f4665652063616e6e6f7420626520300000000000000000000000000000000000600082015250565b60006114c2600f8361115b565b91506114cd8261148c565b602082019050919050565b600060208201905081810360008301526114f1816114b5565b9050919050565b7f46656520746f6f20686967680000000000000000000000000000000000000000600082015250565b600061152e600c8361115b565b9150611539826114f8565b602082019050919050565b6000602082019050818103600083015261155d81611521565b9050919050565b60006040820190506115796000830185611131565b6115866020830184611131565b9392505050565b7f4f776e61626c653a206e6577206f776e657220697320746865207a65726f206160008201527f6464726573730000000000000000000000000000000000000000000000000000602082015250565b60006115e960268361115b565b91506115f48261158d565b604082019050919050565b60006020820190508181036000830152611618816115dc565b9050919050565b600061162a82610f70565b915061163583610f70565b925082820261164381610f70565b9150828204841483151761165a57611659611244565b5b5092915050565b7f4e487b7100000000000000000000000000000000000000000000000000000000600052601260045260246000fd5b600061169b82610f70565b91506116a683610f70565b9250826116b6576116b5611661565b5b828204905092915050565b60006060820190506116d660008301866110da565b6116e360208301856110da565b6116f06040830184611131565b949350505050565b60008115159050919050565b61170d816116f8565b811461171857600080fd5b50565b60008151905061172a81611704565b92915050565b60006020828403121561174657611745610e20565b5b60006117548482850161171b565b91505092915050565b7f5361666545524332303a204552433230206f7065726174696f6e20646964206e60008201527f6f74207375636365656400000000000000000000000000000000000000000000602082015250565b60006117b9602a8361115b565b91506117c48261175d565b604082019050919050565b600060208201905081810360008301526117e8816117ac565b9050919050565b7f416464726573733a20696e73756666696369656e742062616c616e636520666f60008201527f722063616c6c0000000000000000000000000000000000000000000000000000602082015250565b600061184b60268361115b565b9150611856826117ef565b604082019050919050565b6000602082019050818103600083015261187a8161183e565b9050919050565b7f416464726573733a2063616c6c20746f206e6f6e2d636f6e7472616374000000600082015250565b60006118b7601d8361115b565b91506118c282611881565b602082019050919050565b600060208201905081810360008301526118e6816118aa565b9050919050565b600081519050919050565b600081905092915050565b600061190e826118ed565b61191881856118f8565b93506119288185602086016112b2565b80840191505092915050565b60006119408284611903565b915081905092915050565b6000602082019050818103600083015261196581846112dc565b90509291505056fea2646970667358221220a0fe4fdf2ad04be3f8bb434f1493060fc08d17cf7b9842e747061c1657c2e64b64736f6c63430008120033",
  "linkReferences": {},
  "deployedLinkReferences": {}
}