{
  "_format": "hh-sol-artifact-1",
  "contractName": "MultiMerkleStash",
  "sourceName": "contracts/MultiMerkleStash.sol",
  "abi": [
    {
      "anonymous": false,
      "inputs": [
        {
          "indexed": true,
          "internalType": "address",
          "name": "token",
          "type": "address"
        },
        {
          "indexed": false,
          "internalType": "uint256",
          "name": "index",
          "type": "uint256"
        },
        {
          "indexed": false,
          "internalType": "uint256",
          "name": "amount",
          "type": "uint256"
        },
        {
          "indexed": true,
          "internalType": "address",
          "name": "account",
          "type": "address"
        },
        {
          "indexed": true,
          "internalType": "uint256",
          "name": "update",
          "type": "uint256"
        }
      ],
      "name": "Claimed",
      "type": "event"
    },
    {
      "anonymous": false,
      "inputs": [
        {
          "indexed": true,
          "internalType": "address",
          "name": "token",
          "type": "address"
        },
        {
          "indexed": true,
          "internalType": "bytes32",
          "name": "merkleRoot",
          "type": "bytes32"
        },
        {
          "indexed": true,
          "internalType": "uint256",
          "name": "update",
          "type": "uint256"
        }
      ],
      "name": "MerkleRootUpdated",
      "type": "event"
    },
    {
      "anonymous": false,
      "inputs": [
        {
          "indexed": true,
          "internalType": "address",
          "name": "previousOwner",
          "type": "address"
        },
        {
          "indexed": true,
          "internalType": "address",
          "name": "newOwner",
          "type": "address"
        }
      ],
      "name": "OwnershipTransferred",
      "type": "event"
    },
    {
      "inputs": [
        {
          "internalType": "address",
          "name": "token",
          "type": "address"
        },
        {
          "internalType": "uint256",
          "name": "index",
          "type": "uint256"
        },
        {
          "internalType": "address",
          "name": "account",
          "type": "address"
        },
        {
          "internalType": "uint256",
          "name": "amount",
          "type": "uint256"
        },
        {
          "internalType": "bytes32[]",
          "name": "merkleProof",
          "type": "bytes32[]"
        }
      ],
      "name": "claim",
      "outputs": [],
      "stateMutability": "nonpayable",
      "type": "function"
    },
    {
      "inputs": [
        {
          "internalType": "address",
          "name": "account",
          "type": "address"
        },
        {
          "components": [
            {
              "internalType": "address",
              "name": "token",
              "type": "address"
            },
            {
              "internalType": "uint256",
              "name": "index",
              "type": "uint256"
            },
            {
              "internalType": "uint256",
              "name": "amount",
              "type": "uint256"
            },
            {
              "internalType": "bytes32[]",
              "name": "merkleProof",
              "type": "bytes32[]"
            }
          ],
          "internalType": "struct MultiMerkleStash.claimParam[]",
          "name": "claims",
          "type": "tuple[]"
        }
      ],
      "name": "claimMulti",
      "outputs": [],
      "stateMutability": "nonpayable",
      "type": "function"
    },
    {
      "inputs": [
        {
          "internalType": "address",
          "name": "token",
          "type": "address"
        },
        {
          "internalType": "uint256",
          "name": "index",
          "type": "uint256"
        }
      ],
      "name": "isClaimed",
      "outputs": [
        {
          "internalType": "bool",
          "name": "",
          "type": "bool"
        }
      ],
      "stateMutability": "view",
      "type": "function"
    },
    {
      "inputs": [
        {
          "internalType": "address",
          "name": "",
          "type": "address"
        }
      ],
      "name": "merkleRoot",
      "outputs": [
        {
          "internalType": "bytes32",
          "name": "",
          "type": "bytes32"
        }
      ],
      "stateMutability": "view",
      "type": "function"
    },
    {
      "inputs": [],
      "name": "owner",
      "outputs": [
        {
          "internalType": "address",
          "name": "",
          "type": "address"
        }
      ],
      "stateMutability": "view",
      "type": "function"
    },
    {
      "inputs": [],
      "name": "renounceOwnership",
      "outputs": [],
      "stateMutability": "nonpayable",
      "type": "function"
    },
    {
      "inputs": [
        {
          "internalType": "address",
          "name": "",
          "type": "address"
        }
      ],
      "name": "totalClaimed",
      "outputs": [
        {
          "internalType": "uint256",
          "name": "",
          "type": "uint256"
        }
      ],
      "stateMutability": "view",
      "type": "function"
    },
    {
      "inputs": [
        {
          "internalType": "address",
          "name": "newOwner",
          "type": "address"
        }
      ],
      "name": "transferOwnership",
      "outputs": [],
      "stateMutability": "nonpayable",
      "type": "function"
    },
    {
      "inputs": [
        {
          "internalType": "address",
          "name": "",
          "type": "address"
        }
      ],
      "name": "update",
      "outputs": [
        {
          "internalType": "uint256",
          "name": "",
          "type": "uint256"
        }
      ],
      "stateMutability": "view",
      "type": "function"
    },
    {
      "inputs": [
        {
          "internalType": "address",
          "name": "token",
          "type": "address"
        },
        {
          "internalType": "bytes32",
          "name": "_merkleRoot",
          "type": "bytes32"
        }
      ],
      "name": "updateMerkleRoot",
      "outputs": [],
      "stateMutability": "nonpayable",
      "type": "function"
    }
  ],
  "bytecode": "0x608060405234801561001057600080fd5b5061002d61002261003960201b60201c565b61004160201b60201c565b60018081905550610105565b600033905090565b60008060009054906101000a900473ffffffffffffffffffffffffffffffffffffffff169050816000806101000a81548173ffffffffffffffffffffffffffffffffffffffff021916908373ffffffffffffffffffffffffffffffffffffffff1602179055508173ffffffffffffffffffffffffffffffffffffffff168173ffffffffffffffffffffffffffffffffffffffff167f8be0079c531659141344cd1fd0a4f28419497f9722a3daafe3b4186f6b6457e060405160405180910390a35050565b611d5c806101146000396000f3fe608060405234801561001057600080fd5b506004361061009e5760003560e01c80638da5cb5b116100665780638da5cb5b14610145578063e211158614610163578063e786818e14610193578063ef5d9ae8146101af578063f2fde38b146101df5761009e565b806312d18ed6146100a35780631c1b8772146100bf57806320ce64de146100ef578063562beba81461010b578063715018a61461013b575b600080fd5b6100bd60048036038101906100b8919061119b565b6101fb565b005b6100d960048036038101906100d49190611235565b610551565b6040516100e69190611271565b60405180910390f35b610109600480360381019061010491906112e2565b610569565b005b61012560048036038101906101209190611342565b610656565b604051610132919061139d565b60405180910390f35b61014361073a565b005b61014d6107c2565b60405161015a91906113c7565b60405180910390f35b61017d60048036038101906101789190611235565b6107eb565b60405161018a91906113fb565b60405180910390f35b6101ad60048036038101906101a89190611442565b610803565b005b6101c960048036038101906101c49190611235565b6109a2565b6040516101d69190611271565b60405180910390f35b6101f960048036038101906101f49190611235565b6109ba565b005b600260015403610240576040517f08c379a0000000000000000000000000000000000000000000000000000000008152600401610237906114df565b60405180910390fd5b60026001819055506000801b600260008873ffffffffffffffffffffffffffffffffffffffff1673ffffffffffffffffffffffffffffffffffffffff16815260200190815260200160002054036102cc576040517f08c379a00000000000000000000000000000000000000000000000000000000081526004016102c39061154b565b60405180910390fd5b6102d68686610656565b15610316576040517f08c379a000000000000000000000000000000000000000000000000000000000815260040161030d906115b7565b60405180910390fd5b600085858560405160200161032d93929190611640565b6040516020818303038152906040528051906020012090506103d0838380806020026020016040519081016040528093929190818152602001838360200280828437600081840152601f19601f82011690508083019250505050505050600260008a73ffffffffffffffffffffffffffffffffffffffff1673ffffffffffffffffffffffffffffffffffffffff1681526020019081526020016000205483610ab1565b61040f576040517f08c379a0000000000000000000000000000000000000000000000000000000008152600401610406906116c9565b60405180910390fd5b6104198787610ac8565b83600460008973ffffffffffffffffffffffffffffffffffffffff1673ffffffffffffffffffffffffffffffffffffffff16815260200190815260200160002060008282546104689190611718565b9250508190555061049a85858973ffffffffffffffffffffffffffffffffffffffff16610c3d9092919063ffffffff16565b600360008873ffffffffffffffffffffffffffffffffffffffff1673ffffffffffffffffffffffffffffffffffffffff168152602001908152602001600020548573ffffffffffffffffffffffffffffffffffffffff168873ffffffffffffffffffffffffffffffffffffffff167f4766921f5c59646d22d7d266a29164c8e9623684d8dfdbd931731dfdca025238898860405161053992919061174c565b60405180910390a45060018081905550505050505050565b60036020528060005260406000206000915090505481565b60005b828290508110156106505761063d83838381811061058d5761058c611775565b5b905060200281019061059f91906117b3565b60000160208101906105b19190611235565b8484848181106105c4576105c3611775565b5b90506020028101906105d691906117b3565b60200135868686868181106105ee576105ed611775565b5b905060200281019061060091906117b3565b6040013587878781811061061757610616611775565b5b905060200281019061062991906117b3565b806060019061063891906117db565b6101fb565b80806106489061183e565b91505061056c565b50505050565b6000806101008361066791906118b5565b905060006101008461067991906118e6565b90506000600560008773ffffffffffffffffffffffffffffffffffffffff1673ffffffffffffffffffffffffffffffffffffffff1681526020019081526020016000206000600360008973ffffffffffffffffffffffffffffffffffffffff1673ffffffffffffffffffffffffffffffffffffffff16815260200190815260200160002054815260200190815260200160002060008481526020019081526020016000205490506000826001901b9050808183161494505050505092915050565b610742610cc3565b73ffffffffffffffffffffffffffffffffffffffff166107606107c2565b73ffffffffffffffffffffffffffffffffffffffff16146107b6576040517f08c379a00000000000000000000000000000000000000000000000000000000081526004016107ad90611963565b60405180910390fd5b6107c06000610ccb565b565b60008060009054906101000a900473ffffffffffffffffffffffffffffffffffffffff16905090565b60026020528060005260406000206000915090505481565b61080b610cc3565b73ffffffffffffffffffffffffffffffffffffffff166108296107c2565b73ffffffffffffffffffffffffffffffffffffffff161461087f576040517f08c379a000000000000000000000000000000000000000000000000000000000815260040161087690611963565b60405180910390fd5b6001600360008473ffffffffffffffffffffffffffffffffffffffff1673ffffffffffffffffffffffffffffffffffffffff16815260200190815260200160002060008282546108cf9190611718565b9250508190555080600260008473ffffffffffffffffffffffffffffffffffffffff1673ffffffffffffffffffffffffffffffffffffffff16815260200190815260200160002081905550600360008373ffffffffffffffffffffffffffffffffffffffff1673ffffffffffffffffffffffffffffffffffffffff16815260200190815260200160002054818373ffffffffffffffffffffffffffffffffffffffff167fbdc375de8a677af383c6ee6f8b2027dbd231c3c47453ce81d1ce8f1bcdb722dc60405160405180910390a45050565b60046020528060005260406000206000915090505481565b6109c2610cc3565b73ffffffffffffffffffffffffffffffffffffffff166109e06107c2565b73ffffffffffffffffffffffffffffffffffffffff1614610a36576040517f08c379a0000000000000000000000000000000000000000000000000000000008152600401610a2d90611963565b60405180910390fd5b600073ffffffffffffffffffffffffffffffffffffffff168173ffffffffffffffffffffffffffffffffffffffff1603610aa5576040517f08c379a0000000000000000000000000000000000000000000000000000000008152600401610a9c906119f5565b60405180910390fd5b610aae81610ccb565b50565b600082610abe8584610d8f565b1490509392505050565b600061010082610ad891906118b5565b9050600061010083610aea91906118e6565b9050806001901b600560008673ffffffffffffffffffffffffffffffffffffffff1673ffffffffffffffffffffffffffffffffffffffff1681526020019081526020016000206000600360008873ffffffffffffffffffffffffffffffffffffffff1673ffffffffffffffffffffffffffffffffffffffff16815260200190815260200160002054815260200190815260200160002060008481526020019081526020016000205417600560008673ffffffffffffffffffffffffffffffffffffffff1673ffffffffffffffffffffffffffffffffffffffff1681526020019081526020016000206000600360008873ffffffffffffffffffffffffffffffffffffffff1673ffffffffffffffffffffffffffffffffffffffff16815260200190815260200160002054815260200190815260200160002060008481526020019081526020016000208190555050505050565b610cbe8363a9059cbb60e01b8484604051602401610c5c929190611a15565b604051602081830303815290604052907bffffffffffffffffffffffffffffffffffffffffffffffffffffffff19166020820180517bffffffffffffffffffffffffffffffffffffffffffffffffffffffff8381831617835250505050610e04565b505050565b600033905090565b60008060009054906101000a900473ffffffffffffffffffffffffffffffffffffffff169050816000806101000a81548173ffffffffffffffffffffffffffffffffffffffff021916908373ffffffffffffffffffffffffffffffffffffffff1602179055508173ffffffffffffffffffffffffffffffffffffffff168173ffffffffffffffffffffffffffffffffffffffff167f8be0079c531659141344cd1fd0a4f28419497f9722a3daafe3b4186f6b6457e060405160405180910390a35050565b60008082905060005b8451811015610df9576000858281518110610db657610db5611775565b5b60200260200101519050808311610dd857610dd18382610ecb565b9250610de5565b610de28184610ecb565b92505b508080610df19061183e565b915050610d98565b508091505092915050565b6000610e66826040518060400160405280602081526020017f5361666545524332303a206c6f772d6c6576656c2063616c6c206661696c65648152508573ffffffffffffffffffffffffffffffffffffffff16610ee29092919063ffffffff16565b9050600081511115610ec65780806020019051810190610e869190611a6a565b610ec5576040517f08c379a0000000000000000000000000000000000000000000000000000000008152600401610ebc90611b09565b60405180910390fd5b5b505050565b600082600052816020526040600020905092915050565b6060610ef18484600085610efa565b90509392505050565b606082471015610f3f576040517f08c379a0000000000000000000000000000000000000000000000000000000008152600401610f3690611b9b565b60405180910390fd5b610f488561100e565b610f87576040517f08c379a0000000000000000000000000000000000000000000000000000000008152600401610f7e90611c07565b60405180910390fd5b6000808673ffffffffffffffffffffffffffffffffffffffff168587604051610fb09190611c98565b60006040518083038185875af1925050503d8060008114610fed576040519150601f19603f3d011682016040523d82523d6000602084013e610ff2565b606091505b5091509150611002828286611031565b92505050949350505050565b6000808273ffffffffffffffffffffffffffffffffffffffff163b119050919050565b6060831561104157829050611091565b6000835111156110545782518084602001fd5b816040517f08c379a00000000000000000000000000000000000000000000000000000000081526004016110889190611d04565b60405180910390fd5b9392505050565b600080fd5b600080fd5b600073ffffffffffffffffffffffffffffffffffffffff82169050919050565b60006110cd826110a2565b9050919050565b6110dd816110c2565b81146110e857600080fd5b50565b6000813590506110fa816110d4565b92915050565b6000819050919050565b61111381611100565b811461111e57600080fd5b50565b6000813590506111308161110a565b92915050565b600080fd5b600080fd5b600080fd5b60008083601f84011261115b5761115a611136565b5b8235905067ffffffffffffffff8111156111785761117761113b565b5b60208301915083602082028301111561119457611193611140565b5b9250929050565b60008060008060008060a087890312156111b8576111b7611098565b5b60006111c689828a016110eb565b96505060206111d789828a01611121565b95505060406111e889828a016110eb565b94505060606111f989828a01611121565b935050608087013567ffffffffffffffff81111561121a5761121961109d565b5b61122689828a01611145565b92509250509295509295509295565b60006020828403121561124b5761124a611098565b5b6000611259848285016110eb565b91505092915050565b61126b81611100565b82525050565b60006020820190506112866000830184611262565b92915050565b60008083601f8401126112a2576112a1611136565b5b8235905067ffffffffffffffff8111156112bf576112be61113b565b5b6020830191508360208202830111156112db576112da611140565b5b9250929050565b6000806000604084860312156112fb576112fa611098565b5b6000611309868287016110eb565b935050602084013567ffffffffffffffff81111561132a5761132961109d565b5b6113368682870161128c565b92509250509250925092565b6000806040838503121561135957611358611098565b5b6000611367858286016110eb565b925050602061137885828601611121565b9150509250929050565b60008115159050919050565b61139781611382565b82525050565b60006020820190506113b2600083018461138e565b92915050565b6113c1816110c2565b82525050565b60006020820190506113dc60008301846113b8565b92915050565b6000819050919050565b6113f5816113e2565b82525050565b600060208201905061141060008301846113ec565b92915050565b61141f816113e2565b811461142a57600080fd5b50565b60008135905061143c81611416565b92915050565b6000806040838503121561145957611458611098565b5b6000611467858286016110eb565b92505060206114788582860161142d565b9150509250929050565b600082825260208201905092915050565b7f5265656e7472616e637947756172643a207265656e7472616e742063616c6c00600082015250565b60006114c9601f83611482565b91506114d482611493565b602082019050919050565b600060208201905081810360008301526114f8816114bc565b9050919050565b7f66726f7a656e0000000000000000000000000000000000000000000000000000600082015250565b6000611535600683611482565b9150611540826114ff565b602082019050919050565b6000602082019050818103600083015261156481611528565b9050919050565b7f44726f7020616c726561647920636c61696d65642e0000000000000000000000600082015250565b60006115a1601583611482565b91506115ac8261156b565b602082019050919050565b600060208201905081810360008301526115d081611594565b9050919050565b6000819050919050565b6115f26115ed82611100565b6115d7565b82525050565b60008160601b9050919050565b6000611610826115f8565b9050919050565b600061162282611605565b9050919050565b61163a611635826110c2565b611617565b82525050565b600061164c82866115e1565b60208201915061165c8285611629565b60148201915061166c82846115e1565b602082019150819050949350505050565b7f496e76616c69642070726f6f662e000000000000000000000000000000000000600082015250565b60006116b3600e83611482565b91506116be8261167d565b602082019050919050565b600060208201905081810360008301526116e2816116a6565b9050919050565b7f4e487b7100000000000000000000000000000000000000000000000000000000600052601160045260246000fd5b600061172382611100565b915061172e83611100565b9250828201905080821115611746576117456116e9565b5b92915050565b60006040820190506117616000830185611262565b61176e6020830184611262565b9392505050565b7f4e487b7100000000000000000000000000000000000000000000000000000000600052603260045260246000fd5b600080fd5b600080fd5b600080fd5b6000823560016080038336030381126117cf576117ce6117a4565b5b80830191505092915050565b600080833560016020038436030381126117f8576117f76117a4565b5b80840192508235915067ffffffffffffffff82111561181a576118196117a9565b5b602083019250602082023603831315611836576118356117ae565b5b509250929050565b600061184982611100565b91507fffffffffffffffffffffffffffffffffffffffffffffffffffffffffffffffff820361187b5761187a6116e9565b5b600182019050919050565b7f4e487b7100000000000000000000000000000000000000000000000000000000600052601260045260246000fd5b60006118c082611100565b91506118cb83611100565b9250826118db576118da611886565b5b828204905092915050565b60006118f182611100565b91506118fc83611100565b92508261190c5761190b611886565b5b828206905092915050565b7f4f776e61626c653a2063616c6c6572206973206e6f7420746865206f776e6572600082015250565b600061194d602083611482565b915061195882611917565b602082019050919050565b6000602082019050818103600083015261197c81611940565b9050919050565b7f4f776e61626c653a206e6577206f776e657220697320746865207a65726f206160008201527f6464726573730000000000000000000000000000000000000000000000000000602082015250565b60006119df602683611482565b91506119ea82611983565b604082019050919050565b60006020820190508181036000830152611a0e816119d2565b9050919050565b6000604082019050611a2a60008301856113b8565b611a376020830184611262565b9392505050565b611a4781611382565b8114611a5257600080fd5b50565b600081519050611a6481611a3e565b92915050565b600060208284031215611a8057611a7f611098565b5b6000611a8e84828501611a55565b91505092915050565b7f5361666545524332303a204552433230206f7065726174696f6e20646964206e60008201527f6f74207375636365656400000000000000000000000000000000000000000000602082015250565b6000611af3602a83611482565b9150611afe82611a97565b604082019050919050565b60006020820190508181036000830152611b2281611ae6565b9050919050565b7f416464726573733a20696e73756666696369656e742062616c616e636520666f60008201527f722063616c6c0000000000000000000000000000000000000000000000000000602082015250565b6000611b85602683611482565b9150611b9082611b29565b604082019050919050565b60006020820190508181036000830152611bb481611b78565b9050919050565b7f416464726573733a2063616c6c20746f206e6f6e2d636f6e7472616374000000600082015250565b6000611bf1601d83611482565b9150611bfc82611bbb565b602082019050919050565b60006020820190508181036000830152611c2081611be4565b9050919050565b600081519050919050565b600081905092915050565b60005b83811015611c5b578082015181840152602081019050611c40565b60008484015250505050565b6000611c7282611c27565b611c7c8185611c32565b9350611c8c818560208601611c3d565b80840191505092915050565b6000611ca48284611c67565b915081905092915050565b600081519050919050565b6000601f19601f8301169050919050565b6000611cd682611caf565b611ce08185611482565b9350611cf0818560208601611c3d565b611cf981611cba565b840191505092915050565b60006020820190508181036000830152611d1e8184611ccb565b90509291505056fea2646970667358221220dac61ff4032762d654faeb599d8832a44fcc65a4eab348808b31a33dac41008364736f6c63430008120033",
  "linkReferences": {},
  "deployedLinkReferences": {}
}